:0300000002028871
:0C028800787FE4F6D8FD7581140202CFE7
:10031400C0F9A4B0999282F880908883C6A1868E91
:08032400060FFFFFFFFFFFFFC2
:10000300E4F508F509F50DF50CF50BF50AF50EC247
:1000130094D293758901758CFC758A67D28C308D67
:10002300FDC28D758CFC758A670509E509700205AB
:1000330008C394E8E50894035003020145E4F50876
:10004300F509E50D2401F50DE4350CF50CE4350B4C
:10005300F50BE4350AF50AE47B0AFAF9F8AF0DAEBD
:100063000CAD0BAC0A1201F674142BF58274033A2F
:10007300F583E493F50FE47B0AFAF9F8AF0DAE0CC0
:10008300AD0BAC0A1201F6E47B0AFAF9F81201F699
:1000930074142BF58274033AF583E493F510E47B2F
:1000A30064FAF9F8AF0DAE0CAD0BAC0A1201F6E42D
:1000B3007B0AFAF9F81201F674142BF58274033AE9
:1000C300F583E493F511E47BE87A03F9F8AF0DAE19
:1000D3000CAD0BAC0A1201F6E47B0AFAF9F8120133
:1000E300F674142BF58274033AF583E493F512E462
:1000F3007B107A27F9F8AF0DAE0CAD0BAC0A1201E9
:10010300F6E47B0AFAF9F81201F674142BF58274FB
:10011300033AF583E493F5137BA07A86790178009B
:10012300AF0DAE0CAD0BAC0A1201F6E47B0AFAF983
:10013300F81201F674142BF58274033AF583E493F1
:10014300F514E50E700EC292C291C290050E850F92
:1001530080020021E50EB4010EC292C291D2900535
:100163000E851080020021E50EB4020EC292D291D8
:10017300C290050E851180020021E50EB4030EC264
:1001830092D291D290050E851280020021E50EB421
:10019300040ED292C291C290050E851380020021F3
:1001A300E50E64056003020021D292C291D290F55C
:0701B3000E851480020021FB
:10029400020003E493A3F8E493A34003F68001F27D
:1002A40008DFF48029E493A3F85407240CC8C3336B
:1002B400C4540F4420C8834004F456800146F6DF3A
:1002C400E4800B0102040810204080900324E47EA3
:1002D400019360BCA3FF543F30E509541FFEE4932F
:1002E400A360010ECF54C025E060A840B8E493A3F6
:1002F400FAE493A3F8E493A3C8C582C8CAC583CA21
:10030400F0A3C8C582C8CAC583CADFE9DEE780BED8
:01032C0000D0
:1001BA0075F008758200EF2FFFEE33FECD33CDCCFC
:1001CA0033CCC58233C5829BED9AEC99E58298407F
:1001DA000CF582EE9BFEED9AFDEC99FC0FD5F0D65C
:1001EA00E4CEFBE4CDFAE4CCF9A88222B800C1B986
:1001FA000059BA002DEC8BF084CFCECDFCE5F0CBC4
:10020A00F97818EF2FFFEE33FEED33FDEC33FCEBFC
:10021A0033FB10D703994004EB99FB0FD8E5E4F9B7
:10022A00FA227818EF2FFFEE33FEED33FDEC33FCA4
:10023A00C933C910D7059BE99A4007EC9BFCE99A98
:10024A00F90FD8E0E4C9FAE4CCFB2275F010EF2FDD
:10025A00FFEE33FEED33FDCC33CCC833C810D707DD
:10026A009BEC9AE899400AED9BFDEC9AFCE899F818
:0E027A000FD5F0DAE4CDFBE4CCFAE4C8F922AB
:00000001FF
