:030000000204AA4D
:0C04AA00787FE4F6D8FD75814E0204F165
:100859007580FFC290D291D295AF80C295EF20E703
:01086900F698
:01086A00226B
:1008A000AE07120859C290C2918E80D295C295228D
:1008B000AE07120859D290C2918E80D295C295226D
:10086B00ED7004AC078004EF2440FCEC4480FF02E5
:02087B0008A0D3
:1007E9008B1A8A1B891C12086BAB1AAA1BA91C122B
:1007F900000E6013051CE51C7002051B14F912009C
:080809000EFF1208B080E2228C
:10088F0012086BAF031BEF60077F201208B080F3D5
:01089F002236
:050003007F010208A0CE
:100845007F381208A07F0C1208A07F061208A07F2F
:04085500010208A0F4
:10087D003000313233263435362537383928301BA0
:02088D000D2735
:1006D6009010010101010101010101010101010166
:1006E6000101900001010101010101010101010166
:1006F60001010101012E00102FFFFFFFFFFFFFFF89
:09070600FFFFFFFFFFFFFFFFFFF3
:100622008F0AE50AC39430400FE50AD39439500883
:10063200E50A24D0FF02040AE50AB42604E4FF8096
:1006420019E50AB428047F018010E50AB425047F65
:10065200028007E50AB427057F0302067DE50AB496
:100662000D0302018DE50AB41B1012082F7BFF7ADD
:0B06720008797D7D017F0F1207E9224F
:1005AF00E4F508E4F509E50825E025E02410250920
:1005BF00F8E2FFE50825E025E024002509F8E2FE32
:1005CF006F603DEE6020E50825E025E0247FF58291
:1005DF00E43408F583E5822509F582E43583F58354
:1005EF00E493FF120622E50825E025E024102509F3
:1005FF00F8E2FFE50825E025E024002509F8EFF2F1
:10060F000509E509C39404409D0508E508C3940452
:02061F00409108
:0106210022B6
:10027800E52E25E025E0242FF8E625E0FFA2A4E4FA
:10028800334FFFE52E25E025E0242FF8A607E52EBD
:1002980025E025E02430F8E625E0FFA2A5E4334F69
:1002A800FFE52E25E025E02430F8A607E52E25E019
:1002B80025E02431F8E625E0FFA2A6E4334FFFE568
:1002C8002E25E025E02431F8A607E52E25E025E0D7
:1002D8002432F8E625E0FFA2A7E4334FFFE52E25F8
:1002E800E025E02432F8A607E4FFE52E25E025E026
:1002F800242F2FF8E6540FFE700EE52E25E025E09A
:1003080024102FF8E4F28010BE0F0DE52E25E0250D
:10031800E024102FF87401F20FBF04CE052E532EDF
:1003280003E52E14600F1460111460132403701376
:10033800D2A0C2A322D2A3C2A222D2A2C2A122D2F6
:03034800A1C2A0AF
:01034B00228F
:0C08C00030002B002D002A002F003D000E
:10070F00014D00014E00043F0000000004430000B3
:0E071F000000044900000000014700014800EE
:10081100D2AF7F017E001205361208457BFF7A08B0
:0E08210079C07D017F0F1207E91205AF80FB41
:06034C007B007A00790C31
:0E0352008B198A1A891B8F1F8E1E8D1D8C1C05
:10036000E4F520F521EC33501C1201568F1F8E1E30
:100370008D1D8C1C051BE51B7002051A14F9742DCC
:100380001200270521E47B0AFAF9F8AF1FAE1EAD73
:100390001DAC1C12072EAF03AE20052074222EF8D0
:1003A000A607AF1FAE1EAD1DAC1CE47B0AFAF9F820
:1003B00012072E8F1F8E1E8D1D8C1CE4FFFEFDFC70
:1003C000AB1FAA1EA91DA81CD312016450B7E520BB
:1003D0002521F521AF201520D3EF64809480401DA6
:1003E00074222520F8E62430FFAB19051BE51BAA73
:1003F0001A7002051A14F9EF12002780D7AB19AA58
:090400001AA91BE4120027AF2128
:0104090022D0
:1007B3008F19ED14601214601714601C2403702544
:1007C3007BFF7A0879C280167BFF7A0879C4800E92
:1007D3007BFF7A0879C680067BFF7A0879C8AD1952
:0607E300E4FF1207E92209
:10082F00E4F542F541F540F53FF546F545F544F55C
:06083F0043F54D02000329
:02040A008F0B56
:10040C00E4F50CE54DD39401400312082FE54D7033
:10041C003B7F0AFEFDFCAB42AA41A940A83F12005B
:10042C0039A804A905AA06AB07E4FCFDFEEB250BD5
:10043C00F542EE3AF541ED39F540EC38F53F7B00ED
:10044C007A00790DAF42AE41AD40803AE47F0AFEAE
:10045C00FDFCAB46AA45A944A843120039A804A93F
:10046C0005AA06AB07E4FCFDFEEB250BF546EE3AC0
:10047C00F545ED39F544EC38F5437B007A00790D00
:10048C00AF46AE45AD44FC1203528F0CC3741095AD
:0D049C000CFF7B007A00790D7D011207E94D
:0104A9002230
:02067D008F0BE1
:10067F00E54D7052FB7A00790DAF42AE41AD40AC03
:10068F003F1203528F0CC37410950CFBE4FDFF1245
:10069F00088FC37410950CFF7B007A00790DE4FD71
:1006AF001207E9AD0B7F011207B37B0E7D017F01AE
:1006BF0012088F7BFF7A0879C07D017F0F1207E93F
:0606CF00850B4E754D0184
:0106D5002202
:10018D00E54D64016003020277754D02E54E146082
:10019D002414603C14604E24037065E5422546F539
:1001AD004CE5413545F54BE5403544F54AE53F35E0
:1001BD0043F549804BC3E5429546F54CE5419545E0
:1001CD00F54BE5409544F54AE53F9543F5498030BB
:1001DD00AF46AE45AD44AC43AB42AA41A940A83FA2
:1001ED001200398013AB46AA45A944A843AF42AECD
:1001FD0041AD40AC3F12072E8F4C8E4B8D4A8C4932
:10020D00AF46AE45AD44AC4312034C8F0BAD4EE43F
:10021D00FF1207B3C3740F950BFBE4FD7F011208AA
:10022D008FC37410950BFF7B007A00790CE4FD12DF
:10023D0007E9AF4CAE4BAD4AAC4912034C8F0B7B6B
:10024D00FF7A0879CA7D01E4FF1207E9C3740F959F
:10025D000BFB7D017F0112088FC37410950BFF7B83
:0A026D00007A00790C7D011207E908
:010277002264
:10053600750B00750A1075090E750800E4FCFDAB15
:100546000BAA0AA909A808120039E47BE87A03F97C
:10055600F81200C48F0B8E0A8D098C08C3E4950B24
:10056600F50BE4950AF50A74019509F509E4950871
:10057600F508E50B240CF50BE4350AF50AE4350914
:10058600F509E43508F508AF0BAE0AAD09FC7808A5
:1005960012017A8F47850B485389F04389018547B5
:0805A6008C85488AD2A9D28C91
:0105AE00222A
:03000B0002077277
:10077200C0E0C0F0C083C082C0D075D000C000C04D
:1007820001C002C003C004C005C006C00785478C73
:1007920085488A120278D007D006D005D004D0034B
:1007A200D002D001D000D0D0D082D083D0F0D0E01F
:0107B2003214
:1004B600020811E493A3F8E493A34003F68001F243
:1004C60008DFF48029E493A3F85407240CC8C33347
:1004D600C4540F4420C8834004F456800146F6DF16
:1004E600E4800B01020408102040809006D6E47ECA
:1004F600019360BCA3FF543F30E509541FFEE4930B
:10050600A360010ECF54C025E060A840B8E493A3D1
:10051600FAE493A3F8E493A3C8C582C8CAC583CAFC
:10052600F0A3C8C582C8CAC583CADFE9DEE780BEB4
:01072D0000CB
:10000E00BB010689828A83E0225002E722BBFE02F0
:09001E00E32289828A83E4932223
:10002700BB010689828A83F0225002F722BBFE01B8
:02003700F322B2
:10003900E88FF0A4CC8BF0A42CFCE98EF0A42CFC66
:100049008AF0EDA42CFCEA8EF0A4CDA8F08BF0A4E4
:100059002DCC3825F0FDE98FF0A42CCD35F0FCEB43
:100069008EF0A4FEA9F0EB8FF0A4CFC5F02ECD3908
:0F007900FEE43CFCEAA42DCE35F0FDE43CFC2275
:1000880075F008758200EF2FFFEE33FECD33CDCC2F
:1000980033CCC58233C5829BED9AEC99E5829840B2
:1000A8000CF582EE9BFEED9AFDEC99FC0FD5F0D68F
:1000B800E4CEFBE4CDFAE4CCF9A88222B800C1B9B9
:1000C8000059BA002DEC8BF084CFCECDFCE5F0CBF7
:1000D800F97818EF2FFFEE33FEED33FDEC33FCEB30
:1000E80033FB10D703994004EB99FB0FD8E5E4F9EB
:1000F800FA227818EF2FFFEE33FEED33FDEC33FCD8
:10010800C933C910D7059BE99A4007EC9BFCE99ACB
:10011800F90FD8E0E4C9FAE4CCFB2275F010EF2F10
:10012800FFEE33FEED33FDCC33CCC833C810D70710
:100138009BEC9AE899400AED9BFDEC9AFCE899F84B
:0E0148000FD5F0DAE4CDFBE4CCFAE4C8F922DE
:10072E00C2D5E830E70FB2D5E4C39BFBE49AFAE4F6
:10073E0099F9E498F8EC30E717B2D5120764120075
:10074E00C4E4C39BFBE49AFAE499F9E498F88003B5
:10075E001200C430D50DE4C39FFFE49EFEE49DFD60
:04076E00E49CFC22E9
:0E015600C3E49FFFE49EFEE49DFDE49CFC22BA
:10016400EB9FF5F0EA9E42F0E99D42F0EC6480C812
:0601740064809845F022B2
:10017A00E8600FECC313FCED13FDEE13FEEF13FF63
:03018A00D8F12287
:00000001FF
