:030000000204ED0A
:0C04ED00787FE4F6D8FD75814A020534E2
:1000260000C1814001C0804101C0804100C18140C2
:1000360001C0804100C1814000C1814001C08041B2
:1000460001C0804100C1814000C1814001C08041A2
:1000560000C1814001C0804101C0804100C1814092
:1000660001C0804100C1814000C1814001C0804182
:1000760000C1814001C0804101C0804100C1814072
:1000860000C1814001C0804101C0804100C1814062
:1000960001C0804100C1814000C1814001C0804152
:1000A60001C0804100C1814000C1814001C0804142
:1000B60000C1814001C0804101C0804100C1814032
:1000C60000C1814001C0804101C0804100C1814022
:1000D60001C0804100C1814000C1814001C0804112
:1000E60000C1814001C0804101C0804100C1814002
:1000F60001C0804100C1814000C1814001C08041F2
:1001060001C0804100C1814000C1814001C08041E1
:1001160000C1814001C0804101C0804100C18140D1
:1001260000C0C101C30302C2C60607C705C5C40491
:10013600CC0C0DCD0FCFCE0E0ACACB0BC90908C801
:10014600D81819D91BDBDA1A1EDEDF1FDD1D1CDCF1
:1001560014D4D515D71716D6D21213D311D1D01061
:10016600F03031F133F3F23236F6F737F53534F451
:100176003CFCFD3DFF3F3EFEFA3A3BFB39F9F838C1
:1001860028E8E929EB2B2AEAEE2E2FEF2DEDEC2CB1
:10019600E42425E527E7E62622E2E323E12120E021
:1001A600A06061A163A3A26266A6A767A56564A411
:1001B6006CACAD6DAF6F6EAEAA6A6BAB69A9A86881
:1001C60078B8B979BB7B7ABABE7E7FBF7DBDBC7C71
:1001D600B47475B577B7B67672B2B373B17170B0E1
:1001E60050909151935352929656579755959454D1
:1001F6009C5C5D9D5F9F9E5E5A9A9B5B9959589841
:10020600884849894B8B8A4A4E8E8F4F8D4D4C8C30
:1002160044848545874746868242438341818040A0
:060682008B488A49894AF9
:100688007FFF7CFFAE051DEE6023AB48054AE54AB7
:10069800AA497002054914F91203926FFB7A009077
:1006A8000026936CFFEB90012693FC80D7EFFEADFC
:0306B80004EDFF4F
:0106BB00221C
:1007E1007580FFC290D291D295AF80C295EF20E77C
:0107F100F611
:0107F20022E4
:1007F300AE071207E1C290C2918E80D295C29522B4
:10080300AE071207E1D290C2918E80D295C2952293
:10076B00ED7004AC078004EF2440FCEC4480FF12D6
:10077B0007F3120392FF600C120803740129F9E4CA
:04078B003AFA80EEC8
:01078F002247
:10000E007F381207F37F0C1207F37F061207F37F78
:04001E00010207F3E1
:0807CB00C10201100001110040
:1007B300D2AF7F017E001205797F807E2512071A52
:0807C30012000E12022680FB59
:1005790075240075231075220E752100E4FCFDAB6E
:1005890024AA23A922A8211203BDE47BE87A03F94E
:10059900F81204488F248E238D228C21C3E49524DC
:1005A900F524E49523F52374019522F522E4952198
:1005B900F521E5242422F524E43523F523E4352225
:1005C900F522E43521F521AF24AE23AD22FC7808CC
:1005D9001204DA8F108524115389F043890185109B
:0805E9008C85118AD2A9D28C85
:0105F10022E7
:03000B000205F2F9
:1005F200C0E0C0F0C083C082C0D075D000C000C0CF
:1006020001C002C003C004C005C006C00785108C2B
:1006120085118A300204B2968002D2967F011206B8
:10062200EED007D006D005D004D003D002D001D03E
:0C06320000D0D0D082D083D0F0D0E032D5
:0D07D300C101C100010F0001080001090073
:10071A00C29775985053890F438920AB07AA06E4FC
:10072A00F9F87F807E70FDFC12063EEFF404F58D29
:0A073A00858D8BC2ABD2ACD28E22AB
:10074400EDD3950F4002AD0FE4FFEFC39D5012743B
:10075400002FF8E21203AB740129F9E43AFA0F808E
:06076400E9E4F50FAF050A
:01076A00226C
:0B0813000000000000000000DFF622E3
:10079000D297AF051DEF6013C201120392F5997451
:1007A0000129F9E43AFA2001E980FB7F05120813D8
:0307B000C29722CB
:10022600200003020391C2007B007A0079247D1E20
:100236001207448F23E524640160030203917A00C8
:100246007924E52324FEFD1206828E468F47E54675
:10025600FFAE4774222523F8E66F6003020391740C
:10026600232523F8E66E6003020391E52524FA6050
:100276006724036003020357E5267057E527D394E6
:10028600055050E52794045039852721852922E514
:100296002225E0F526752303AF221522EF7003020F
:1002A6000360AF23052374242FF8E4F6AF2105215C
:1002B600740A2FF8E6FFAE23052374242EF8A6074A
:1002C60080D6752602E4F527A20233F528752305A4
:1002D6000203607525838074E526706DE527D39447
:1002E600055066E52794045054852721740A252174
:1002F600F8A629740A2521F8E6FFC4540FF522C38F
:10030600940AE52240062437F54280042430F5425B
:10031600EF540FF522C3940AE52240062437F5432D
:1003260080042430F543E4F544E52175F003A4FF89
:100336007B007A007942E4FD12076B8006E52924EA
:10034600FF920215231523801175258675260280D6
:10035600064325807526017523037B007A007924E0
:10036600AD231206828E468F47E546FFAE23052350
:1003760074242EF8A607AE23052374242EF8A64768
:0B0386007B007A007924AD2312079061
:010391002249
:1006EE00E50FD394004021E508650F6007850F08DC
:1006FE00E4F50922E509C394055010EF2509F50923
:0B070E00C394054006D20022E4F50869
:0107190022BD
:030023000206BC16
:1006BC00C0E0C0D075D000C000C007309814C298FC
:1006CC00E50FC39428500BAF0F050F74002FF8E5FE
:1006DC0099F2309904C299D201D007D000D0D0D071
:0206EC00E032FA
:1004F9000207B3E493A3F8E493A34003F68001F25F
:1005090008DFF48029E493A3F85407240CC8C33303
:10051900C4540F4420C8834004F456800146F6DFD2
:10052900E4800B01020408102040809007CBE47E90
:10053900019360BCA3FF543F30E509541FFEE493C7
:10054900A360010ECF54C025E060A840B8E493A38E
:10055900FAE493A3F8E493A3C8C582C8CAC583CAB9
:10056900F0A3C8C582C8CAC583CADFE9DEE780BE71
:0107E0000018
:10039200BB010689828A83E0225002E722BBFE0269
:0903A200E32289828A83E493229C
:1003AB00BB010689828A83F0225002F722BBFE0131
:0203BB00F3222B
:1003BD00E88FF0A4CC8BF0A42CFCE98EF0A42CFCDF
:1003CD008AF0EDA42CFCEA8EF0A4CDA8F08BF0A45D
:1003DD002DCC3825F0FDE98FF0A42CCD35F0FCEBBC
:1003ED008EF0A4FEA9F0EB8FF0A4CFC5F02ECD3981
:0F03FD00FEE43CFCEAA42DCE35F0FDE43CFC22EE
:10040C0075F008758200EF2FFFEE33FECD33CDCCA7
:10041C0033CCC58233C5829BED9AEC99E58298402A
:10042C000CF582EE9BFEED9AFDEC99FC0FD5F0D607
:10043C00E4CEFBE4CDFAE4CCF9A88222B800C1B931
:10044C000059BA002DEC8BF084CFCECDFCE5F0CB6F
:10045C00F97818EF2FFFEE33FEED33FDEC33FCEBA8
:10046C0033FB10D703994004EB99FB0FD8E5E4F963
:10047C00FA227818EF2FFFEE33FEED33FDEC33FC50
:10048C00C933C910D7059BE99A4007EC9BFCE99A44
:10049C00F90FD8E0E4C9FAE4CCFB2275F010EF2F89
:1004AC00FFEE33FEED33FDCC33CCC833C810D70789
:1004BC009BEC9AE899400AED9BFDEC9AFCE899F8C4
:0E04CC000FD5F0DAE4CDFBE4CCFAE4C8F92257
:10063E00C2D5E830E70FB2D5E4C39BFBE49AFAE4E7
:10064E0099F9E498F8EC30E717B2D5120674120453
:10065E0048E4C39BFBE49AFAE499F9E498F8800322
:10066E0012044830D50DE4C39FFFE49EFEE49DFDC9
:04067E00E49CFC22DA
:1004DA00E8600FECC313FCED13FDEE13FEEF13FF00
:0304EA00D8F12224
:00000001FF
