:0300000002015F9B
:0C015F00787FE4F6D8FD758120020003D3
:10010A007580FFC290D291D295AF80C295EF20E759
:01011A00F6EE
:01011B0022C1
:10013F00AE0712010AC290C2918E80D295C295224B
:10014F00AE0712010AD290C2918E80D295C295222B
:10011C00ED7004AC078004EF2440FCEC4480FF023B
:02012C00013F91
:10008C008B128A13891412011CAB12AA13A9141215
:10009C0000B460130514E5147002051314F9120072
:0800AC00B4FF12014F80E222B3
:1000E2007F3812013F7F0C12013F7F0612013F7FD2
:0400F2000102013FC7
:10000300C2001200E27F501200F6920075083575A7
:100013000930750A3AA200E4332430F50BE4F50CF9
:10002300FB7A007908FDFF12008C7F621200F692C2
:1000330000750836750932750A3AA200E433243094
:10004300F50BE4F50CFB7A007908FD7F0812008CB0
:0200530080FE2D
:10012E00D2B6D2B700000000C2B600000000C2B7BF
:01013E00229E
:1000CD00C2B7C2B600000000D2B700000000D2B621
:0500DD000000000022FC
:10005500C2027E80EE601B5F7004C2B68002D2B61B
:1000650000000000D2B700000000C2B7EEC313FEC7
:1000750080E2D2B600000000D2B7A2B6920200001C
:060085000000C2B7A20258
:01008B002252
:1000F600C20112012EEF25E0FF12005592011200F7
:03010600CDA20186
:0101090022D3
:1000B400BB010689828A83E0225002E722BBFE024A
:0900C400E32289828A83E493227D
:00000001FF
